:0300000002282EA5
:0C282E00787FE4F6D8FD7581170228754C
:10001E00FFFFFFFFFFFFFFFFFFFFFFFFFFFFFFFFE2
:10002E00FFFFFFFFFFFFFFFFFFFFFFFFFFFFFFFFD2
:10003E00FFFFFFFFFFFFFFFFFFFFFFFFFFFFFFFFC2
:10004E00FFFFFFFFFFFFFFFFFFFFFFFFFFFFFFFFB2
:10005E00FFFFFFFFFFFFFFFFFFFFFFFFFFFFFFFFA2
:10006E00FFFFFFFFFFFFFFFFFFFFFFFFFFFFFFFF92
:10007E00FFFFFFFFFFFFFFFFFFFFFFFFFFFFFFFF82
:10008E00FFFFFFFFFFFFFFFFFFFFFFFFFFFFFFFF72
:10009E00F7CFD7D4D5D55595D5D5D5D4D7D7CFFF7E
:1000AE00BFB8BBBB83FFFE86B6B6B0B6B686FEFF44
:1000BE00FFFF80BBBBBBBBBBB8BBBBBB83FFFFFFA4
:1000CE00FFEFEFEFEFEF6FA0EFEFEFEFEFEFFFFFD1
:1000DE00EFEFEFE3ECEF6F8FEFEFECE3EFEFEFFF10
:1000EE00FFC0DDDDDDC0FFFF80BBBBBBBB80FFFF04
:1000FE00FBDBDBDA803BBBFBFFE0EFEFEFE0FFFF6C
:10010E00FDFDBDCCFFFF01DBD6FD03EDDDBDF1FF37
:10011E00FFFFFFE0EECEAE6EEEEEEEE0FFFFFFFF76
:10012E00FFFFF0F7F7F7F700F7F7F7F7F0FFFFFF2E
:10013E00FFBFBFB7B9BFBF80BFBFBDB3BFBFFFFF5C
:10014E00EFDF3BBB9BABBBA0DB3BBB9BABBFBFFFA8
:10015E00FFFEFDFBE79FFEFF1FE7FBFDFEFFFFFF20
:10016E00FFBFBFBCBFBFBF80BEBEBEBEBEBFFFFF18
:10017E00F7F9BFCEFFF7F7F7F700F7F7F7F7FFFF3F
:10018E00F7F9BFCEFFFBF3EBDB3BFBEBF3F9FFFF26
:10019E00FED9CBD3DBDBC8B3BBBBB38B3BBAF9FF0A
:1001AE00FF80BFB7B6B6B6B0B6B6B6B7BF80FFFF64
:1001BE00DED10BDBDBDB0BD8DEF10EEFEFE0EFFF7A
:1001CE00FFF7F9FEFF00FFFFFF00FFFFFCF3FFFF4D
:1001DE00FDBDCCFFFFE0EEEEEEEF00EF6FACEFFFFC
:1001EE00FFFEF9E01FFFDFDBDB5B9BDBDBDBDFFF13
:1001FE00EFEFEFEFECE10CEDEDEDEDECEFEFEFFFF0
:10020E00FDDDD5D45595D5C0D59555D4D5DDFDFF9D
:10021E00FFFFFFFFFFFFFFFFFFFFFFFFFFFFFFFFE0
:10022E00FFFFFFFFFFFFFFFFFFFFFFFFFFFFFFFFD0
:10023E00FFFFFFFFFFFFFFFFFFFFFFFFFFFFFFFFC0
:10024E00FFFFFFFFFFFFFFFFFFFFFFFFFFFFFFFFB0
:10025E00FFFFFFFFFFFFFFFFFFFFFFFFFFFFFFFFA0
:10026E00FFFFFFFFFFFFFFFFFFFFFFFFFFFFFFFF90
:10027E00FFFFFFFFFFFFFFFFFFFFFFFFFFFFFFFF80
:10028E00FFFFFFFFFFFFFFFFFFFFFFFFFFFFFFFF70
:10029E00FFFFC0DFD4D5D5D5D4DF01DE5C93DFFF01
:1002AE00FDBDCCFFFFC09555C0FEF7F700F7F7FF79
:1002BE00FDF37796F6F67696F6F6E6D737F5F3FF74
:1002CE00F7F7F400F6F7FEEDEB6F8FEFEBEDEEFFC9
:1002DE00FFFBBBCBFBFBF803FBFBFBFBF8FFFFFFBE
:1002EE00FBDBDBDB803BBBFBFB00FBBBCBFAFBFF93
:1002FE00FFFEF9E01FFFE07F9FFFDFDFDFC0FFFFA4
:10030E00F7F7F700F7F6FF80B6B6B6B6B680FFFF82
:10031E00FFFEF9E01FFFF700F7F7F700F7F7FFFF13
:10032E00FDFDBDCCFFEFEBED6E8FECE3EFEFFFFFCE
:10033E00FEFEFDFBF7EFDF3CDFEFF7FBFDFEFEFF02
:10034E00FFBFBFB7B9BFBF80BFBFBDB3BFBFFFFF4A
:10035E00FFFDF8F5EDDD3DFDFDFDEDF5F9FCFFFFD3
:10036E00FFFFFFFFFFFFFFFFFFFFFFFFFFFFFFFF8F
:10037E00FFFFC0DFD4D5D5D5D4DF01DE5C93DFFF20
:10038E00FDBDCCFFFFC09555C0FEF7F700F7F7FF98
:10039E00EFEFEEECE3CF2FEFEFE8EFEFEFEFEFFF46
:1003AE00FBDBDBDB803BBBFBFB00FBBBCBFAFBFFD2
:1003BE00FFFEF9E01FFFE07F9FFFDFDFDFC0FFFFE3
:1003CE00F7F7F700F7F5FBE00DED6DA0EDEDEFFFA4
:1003DE00FDFDBDCCFFFEEEEE00EEEE00EEEEFEFFFE
:1003EE00EFEFEFE0EFEFFFB0B7A794B7B7B0BFFFF7
:1003FE00FFFF80BBBBBBBBBBBBBBBBBB80FFFFFF61
:10040E00FDFDBDCCFFEFEDEEEFEFEF00EFEFEFFFF9
:10041E00DBDBDA803BBBFF83BBBBBBBBBB83FFFF1E
:10042E00FFFFF0F7F7F7F700F7F7F7F7F0FFFFFF2B
:10043E00FBF3CA39F7FBF5EDDD3DDDEDF5FBFBFF1B
:10044E00FBDBDBDB803BBBFBFB00FBBBCBFAFBFF31
:10045E00FFFEF9E01FFFE07F9FFFDFDFDFC0FFFF42
:10046E00F7F7F700F7F6FF80B6B6B6B6B680FFFF21
:10047E00FFFEF9E01FFFF700F7F7F700F7F7FFFFB2
:10048E00DDD5D5D401D5D5DDFF80BFAD96B9FFFF43
:10049E00FF80BBBBBB80FFFFF7F700F7F7F0FFFF56
:1004AE00FFE0CF2FEFEFE0FDF30EEFEFEFE0FFFFFA
:1004BE00FBFBDBDBDBDB02D9DBD3EBDBBBFBFBFFCD
:1004CE00FFC0FFFF00FFBFB8BBBB80BBBBB8BFFF09
:1004DE00FBDBDBDA803BBBFBFFE0EFEFEFE0FFFF88
:1004EE00FDF37796F6F67696F6F6E6D737F5F3FF42
:1004FE00FEFEFEFE00FEFEFAF6EEDEBEFEFEFEFF87
:10050E00FDF37796F6F67696F6F6E6D737F5F3FF21
:10051E00F7F7F007F7F0FF80BBBBBBBB80FFFFFF19
:10052E00FFFEF9E01FFFE07F9FFFDFDFDFC0FFFF71
:10053E00FFFFFFFFFFFFFFFFFFFFFFFFFFFFFFFFBD
:10054E00FFFF80BFBFA0AAAA8AAAAAAAA0BFBFFF08
:10055E00FBDBDBDB803BBBFBFB00FBBBCBFAFBFF20
:10056E00F7F7F400F6F7FEEDEB6F8FEFEBEDEEFF26
:10057E00FFE0CF2FEFEFE0FDF30EEFEFEFE0FFFF29
:10058E00DBDBDA803ABBFFBBCCFFFF00FFFFFFFFD8
:10059E00FDFBF4CD3DDDECF7FBFFE0FFFF00FFFFC1
:1005AE00FFBFBFB7B9BFBF80BFBFBDB3BFBFFFFFE8
:1005BE00FFFDF8F5EDDD3DFDFDFDEDF5F9FCFFFF71
:1005CE00FDEDED00EDEDFFE0EFEF00EF6EA9FFFFAB
:1005DE00FFEFEFEBECEFEF00EFEFEEE9EFEFFFFFEA
:1005EE00FDEDED00EDEDFFE0EFEF00EF6EA9FFFF8B
:1005FE00F7F7F007F7F0FFFEBEBEB8B6AE9EFEFFF1
:10060E00FFFFFFFFFFFFFFFFFFFFFFFFFFFFFFFFEC
:10061E00FFFFC0FFFFBFDFE7FFFFFE01FFFFFFFF92
:10062E00FFFFFFC0DBDBDBDBBBBBBB3BBBFBFBFF77
:10063E00FFE0CF2FEFEFE0FDF30EEFEFEFE0FFFF68
:10064E00EFEFEFE0EFEFFFB0B7A794B7B7B0BFFF94
:10065E00FFFF80BBBBBBBBBBBBBBBBBB80FFFFFFFE
:10066E00FDEDED00EDEDFFE0EFEF00EF6EA9FFFF0A
:10067E00FFEFEFEBECEFEF00EFEFEEE9EFEFFFFF49
:10068E00FDEDED00EDEDFFE0EFEF00EF6EA9FFFFEA
:10069E00FFFEF9E01FF7F7F700F7F07797F7F7FF90
:1006AE00FFF7F6B6B5B3B780B7737576F6F7FFFFFB
:1006BE00FFFFFF80FFFFFFFFFFFFFFFFFFFFFFFFBB
:1006CE00FFFFFF83BBBBB8BBBBBBBB83FFFFFFFF03
:1006DE00FFFCF307F7F7F0FFFF00FBFDFEFFFFFF48
:1006EE00FFFFFFFFFFFFFFFFFFFFFFFFFFFFFFFF0C
:1006FE00BDADB4A99DFCFFB0B7A794B7B7B0BFFF0F
:10070E00EFEF6E88E6FF81BDBCBDBDBCBD81FFFFB6
:10071E00FBDBDBDB803BBBFBFB00FBBBCBFAFBFF5E
:10072E00F7F7F400F6F7FEEDEB6F8FEFEBEDEEFF64
:10073E00FFF1EFEFEFEFF0FFFFFFFFFFFFFFFFFF18
:10074E00FFF8F7EFEFF7F8FFFFFFFFFFFFFFFFFFE9
:10075E00FFFFF7F7E0FFFFFFFFFFFFFFFFFFFFFFCA
:10076E00FFE7EFEFEEE9E7FFFFFFFFFFFFFFFFFF02
:10077E00FFFBE71CDDDDDDDDC0DDDDDDDDDFFFFFE9
:10078E00FFFFFFFFFFFFE3D3BFFFE3D3BFFFFFFF7B
:10079E00F7F7F700F7F6EFF600FFFF00FAF7EFFFB7
:1007AE00FFFFFF00EFEFEFFDFDFD00FBBBCAFBFF00
:1007BE00F7F7F400F5F6DFDFDED8C7DEDFDFDFFFA9
:1007CE00FFFFFB978FFFFB978FFFFFFFFFFFFFFFE3
:1007DE00FFFFE0EEEEEEEEEFEF00EF6FAFECEFFFB0
:1007EE00EFEFEFE0EFEFEFF7F700F7F7F7F0FFFFC0
:1007FE00F7F77695F3F77794F7F7E3D536F7F7FF34
:10080E00FFF7F7F6F7F700F7F7F7F7F0FEFFFFFF42
:10081E00FFFFFFFFFFFFFFFFFFFFFFFFFFFFFFFFDA
:10082E00FFFF80BFBFA0AAAA8AAAAAAAA0BFBFFF25
:10083E00FBDBDBDB803BBBFBFB00FBBBCBFAFBFF3D
:10084E00F7F7F400F6F7FEEDEB6F8FEFEBEDEEFF43
:10085E00FDF37796F6F67696F6F6E6D737F5F3FFCE
:10086E00FEBEBEBEBEBEBEB8BAB6AE9EBEFEFEFFDB
:10087E00BFBFB0B6B6B6B680B6B6B6B6B0BFBFFFDF
:10088E00FDFBF4CD3DDDECF7FBFFE0FFFF00FFFFCE
:10089E00FFFEF9E01DFDDDDDDD01DDDDDDDDFDFF52
:1008AE00FBF3CA39F7DDD5D5D501D5D5D5DDFDFF9D
:1008BE00FFFFFF80FFFFFFFFFFFFFFFFFFFFFFFFB9
:1008CE00FFFFFFFFFFFFFFFFFFFFFFFFFFFFFFFF2A
:1008DE00FFFFFFFFFFFFFFFFFFFFFFFFFFFFFFFF1A
:1008EE00FFFFFFFFFFFFFFFFFFFFFFFFFFFFFFFF0A
:1008FE00FFFFFFFFFFFFFFFFFFFFFFFFFFFFFFFFFA
:10090E00FFFFFFFFFFFFFFFFFFFFFFFFFFFFFFFFE9
:10091E00FFFFFFFFFFFFFFFFFFFFFFFFFFFFFFFFD9
:10092E00FFFFFFFFFFFFFFFFFFFFFFFFFFFFFFFFC9
:10093E00FFFFFFFFFFFFFFFFFFFFFFFFFFFFFFFFB9
:10094E00DFDED8C5DDDCFFE0EEEEEE00EEEAE7FF1F
:10095E00FBFBFB00FBFBDFDFDFDED8C7DEDFDFFFED
:10096E00FFFFFF016D6D6D6D6D6D6D01FFFFFFFF83
:10097E00FFFBBBCBFBFBF803FBFBFBFBF8FFFFFF17
:10098E00FFBFBFBFBFBFBFB8BBB7AF9FBFFFFFFFAC
:10099E00FBDBDBDA803BBBFBFFE0EFEFEFE0FFFFC3
:1009AE00FFBFBFB7B9BFBF80BFBFBDB3BFBFFFFFE4
:1009BE00DFDFDED8C71FDBDBDBDBDAD9DBDFDFFF18
:1009CE00EFEFEEECE3CF2FEFEFE8EFEFEFEFEFFF10
:1009DE00FFFFFFFFFFFFFFFFFFFFFFFFFFFFFFFF19
:1009EE00FFF7F7F7F7F700F7F7F7F7F7F0FFFFFF67
:1009FE00FBFBFB82AAAAAAAAAAAAAA82FBFBFBFF5E
:100A0E00FFFFFF016D6D6D6D6D6D6D01FFFFFFFFE2
:100A1E00FFFBBBCBFBFBF803FBFBFBFBF8FFFFFF76
:100A2E00FFBFBFBFBFBFBFB8BBB7AF9FBFFFFFFF0B
:100A3E00FEFDF387F7F7F700F7F7F7F7F7F7FFFF86
:100A4E00DFDFDED8C71FDBDBDBDBDAD9DBDFDFFF87
:100A5E00FFBFB8BBBBB8B38BB8BBBBBBB8BFFFFF48
:100A6E00FFEFEFEBECEFEF00EFEFEEE9EFEFFFFF55
:100A7E00FFFFFFFFFFFFFFFFFFFFFFFFFFFFFFFF78
:100A8E00EFEFEEECE3CF2FEFEFE8EFEFEFEFEFFF4F
:100A9E00FDFDBDCCFFEFEBED6E8FECE3EFEFFFFF57
:100AAE00FFB0B6B6B6B686FFB0B6B6B6B686FFFF20
:100ABE00FFE0EFEFEEEDEB06EBEDEEEFEFE0FFFF1D
:100ACE00BFB8BBBB83FFFE86B6B6B0B6B686FEFF1A
:100ADE00FBFBF7F0EADAAA72BADAEAF0F7FBFBFFF1
:100AEE00FFE0CF2FEFEFE0FDF30EEFEFEFE0FFFFB4
:100AFE00FFFF80ADAA80A6A83EAAA680A6ABBDFF2A
:100B0E00FFFFC1D55595D5C1D59555D5C1FFFFFF71
:100B1E00FFC0DEDEDEC0FFF7F7F7F7F700F7F7FFEF
:100B2E00FFFEF9E01FFBFBFB01FAF77797F7F7FFE4
:100B3E00FFFFFFFFFFFFFFFFFFFFFFFFFFFFFFFFB7
:100B4E00FBDBDBDB803BBBFBFB00FBBBCBFAFBFF2A
:100B5E00FFE0CF2FEFEFE0FDF30EEFEFEFE0FFFF43
:100B6E00F7CD5855555558055F5455555DD4CFFFA3
:100B7E00FBF7CD1DD5D5D5D5D5D5D5D4DFDFFFFF28
:100B8E007F7E45535705505555055555447D7FFF7E
:100B9E00FFDFDBDB5B9BDBC0DB9B5BDBDBDFFFFFBE
:100BAE00FFFEF9E01FFDFBE70FEFECEFEFEBE7FFCA
:100BBE00FFFF80BBBB80FFFFC0DDDDDDDDC0FFFFC3
:100BCE00FFF8FF00F7FBF7F7F700F7F7F7F7FFFF70
:100BDE00FFE0CF2FEFEFE0FDF30EEFEFEFE0FFFFC3
:100BEE00FFFFFEFFFFF8BFDFE7FFFFFFFDFEFFFF8A
:100BFE00FFDFDEDEDDDBD50ED7DBDDDEDEDFFFFF8A
:100C0E00FFFFFFFFFFFFFFFFFFFFFFFFFFFFFFFFE6
:100C1E00FEFAF68EEEEEEE00EEEEEEEEEEFEFEFFDF
:100C2E00FBE70FEFE0EFEFFFFFC0DFDFDFC0FFFFFF
:100C3E00FFE0CF2FEFEFE0FDF30EEFEFEFE0FFFF62
:100C4E00BDADB4A99DFCFFB0B7A794B7B7B0BFFFB9
:100C5E00DFDFDBDBDBDB5B9BDBDBDBDBDBDFDFFF62
:100C6E00FFFFFF016D6D6D6D6D6D6D01FFFFFFFF80
:100C7E00FFBFBEBEBDBBB7A09FBBBBBDBDBEFFFF12
:100C8E00FFDFDFD0D5D5D505D5D5D5D0DFDFFFFF3A
:100C9E00FFE0CF2FEFEFE0FDF30EEFEFEFE0FFFF02
:100CAE00EFEFEEECE3CF2FEFEFE8EFEFEFEFEFFF2D
:100CBE00FEFEEEEEEEEEEE00EEEEEEEEEEFEFEFFE3
:100CCE00FFEFEFEBECEFEF00EFEFEEE9EFEFFFFFF3
:100CDE00FFFFFFFFFFFFFFFFFFFFFFFFFFFFFFFF16
:100CEE00DFD8DBDBDA09DFDBD90AD3DAD9DBDFFFCA
:100CFE00F7F9BFCEFFDBDB0BD8DBDBD80BDBDBFF83
:100D0E00FFE0CF2FEFEFE0FDF30EEFEFEFE0FFFF91
:100D1E00EFEF6E88E6FFDDD5D5D005D5D4D5DDFF56
:100D2E00FEFAF68EEEEEEE00EEEEEEEEEEFEFEFFCE
:100D3E00FDFDBDCCFFFFFFFFFF00FDFDFDFDFFFF35
:100D4E00FFFFFFF7F9BFCFFFFF00FFFFFFFFFFFF22
:100D5E00FDFDFDFDFDFDFD00FDFDFDFDFDFDFDFFB0
:100D6E00FFFEF9E01FFFE07F9FFFDFDFDFC0FFFF29
:100D7E00EFEFEE00EDEDFFEFED00EFEFE0FFFFFF29
:100D8E00FFFFE0EFEFE0CF2FEFE0EFEFE0FFFFFF31
:100D9E00FBBCCFFEDFDADA02DADADFEFDE39FFFF95
:100DAE00FBBCCFFEDBDB803BBBFFB680B6B6FFFFE6
:100DBE00FFFFFFFFFFFFFFFFFFFFFFFFFFFFFFFF35
:100DCE00EFEFEEECEAE60EE8EEEEEEEEEEEFEFFF14
:100DDE00F7F9BFCEFFDBDB0BD8DBDBD80BDBDBFFA2
:100DEE00FFFDFBF7CFFFFF02FFFFDFEFF7F9FFFF7E
:100DFE00DFD8DBDB00DBDBD8DFFFE0FFFF00FFFF30
:100E0E00FFE0CF2FEFEFE0FDF30EEFEFEFE0FFFF90
:100E1E00FDDDD5599DDDD9D5DDFD80BFBBA49FFF7E
:100E2E00DEDFD7D90FDFDEDDD2DB0BDAD9DFDFFF76
:100E3E00FBF7EFC03FFB8AA9ABA0ABA98AFBFFFF74
:100E4E00FFFEECCAA66CEEEFEEECAAC6ECFEFFFFC0
:100E5E00FFBFBCADB5BD81BDBD81BDB5ADBDFDFF97
:100E6E00FF80BFBBA49FEFECE20EE8EEEEEEEFFFCD
:100E7E00FFFFC0FFFFBFDFE7FFFFFE01FFFFFFFF2A
:100E8E00FFF7EEDC33FDEDEDED01EDECEDEDFDFFED
:100E9E00FFFFFFFFFFFFFFFFFFFFFFFFFFFFFFFF54
:100EAE00F7F700F7E6AFAAAAAF80AFAAAAAFE7FF9F
:100EBE00FDEDEDED00EDEDFFDCDDDDDDC0FFFFFF57
:100ECE00FFFFFF00EFEFEFFDFDFD00FBBBCAFBFFD9
:100EDE00DFDADADA02DADADFEDECED01EDECEFFF74
:100EEE00DFD85B9BDBD8DFFBFB00FBB8CBFBFBFF4C
:100EFE00FDFDBDCCFFFFFFFFFF00FDFDFDFDFFFF74
:100F0E00FBDBDBDB803BBBFBFB00FBBBCBFAFBFF66
:100F1E00FFFEF9E01FFFE07F9FFFDFDFDFC0FFFF77
:100F2E00FDF308DBDBFFD8DBDB00DBDB5B98DFFFF1
:100F3E00FDFDBDBDBDBDBD80BDBDBDBDBDFDFDFFCE
:100F4E00FFDFDBDB5B9BDBC0DB9B5BDBDBDFFFFF0A
:100F5E00FBFBFB00FBFBFEE0FEFD00FBF7F0FFFFE3
:100F6E00FFE0CF2FEFEFE0FDF30EEFEFEFE0FFFF2F
:100F7E00FFEFEFEBECEFEF00EFEFEEE9EFEFFFFF40
:100F8E00FFFFFFFFFFFFFFFFFFFFFFFFFFFFFFFF63
:100F9E00FFFFFF00EFEFEFFDFDFD00FBBBCAFBFF08
:100FAE00FBF7EBDB1BDBDBD8DBD3CBFBF8FFFFFF69
:100FBE00FF83BBB8BB83FFF6F600F66DADEDFDFF0C
:100FCE00FF83BBB883FFDDDBC5FE01DFE7DBBDFFC3
:100FDE00FFFFFFFFFFFFFFFFFFFFFFFFFFFFFFFF13
:100FEE00FBDBDBDB803BBBFBFB00FBBBCBFAFBFF86
:100FFE00FFE0CF2FEFEFE0FDF30EEFEFEFE0FFFF9F
:10100E00FFFFE0EDEDEDECEDEDED00EF6FACEFFF82
:10101E00FFF7F7F7F7F700F7F7F7F7F7F0FFFFFF30
:10102E00FDFDBDCCFFFFFFFFFF00FDFDFDFDFFFF42
:10103E00FFFEF9E01FFDFBE70FEFECEFEFEBE7FF35
:10104E00FFF8FF00F7FBFFE0EFCF2FEFEFE0FFFF22
:10105E00FFFFFFFFFFFFFFFFFFFFFFFFFFFFFFFF92
:10106E00FBF7EF10D5D5D5D5D5D5D5D0DFDFFFFF22
:10107E00F7F9BFCEFFFBDBDBDB80BB3BBBFBFBFF34
:10108E00EFEF6E88E6FFFFE0EEEE00EEEEE0FFFF24
:10109E00FDFDBDCCFFFFFBDBDBDB80BB3BBBFBFF0A
:1010AE00FFFFFFFFFFFFFFFFFFFFFFFFFFFFFFFF42
:1010BE00F7EEDC33DFD0D6D6D006D0D6D6D0DFFFD3
:1010CE00F7EFC0AA2AAAAAA0AAAA8AEAE0FFFFFFFF
:1010DE00FFFEF9E01FFBBBBB80BBBBBB80FBFBFF76
:1010EE00FFE0CF2FEFEFE0FDF30EEFEFEFE0FFFFAE
:1010FE00FFF7F7F7F7F700F7F7F7F7F7F0FFFFFF50
:10110E00FBFBFB82AAAAAAAAAAAAAA82FBFBFBFF46
:10111E00FBFBFBFBFBFBFB00FBFBFBFBFBFBFBFF08
:10112E00FFFFFFFFFFFFFFFFFFFFFFFFFFFFFFFFC1
:10113E00FFFF80BFB7BBBCBFBCB3BF80FFFFFFFFCD
:10114E00BFA0BEBE80FEFDD9D5CD1DCDD4D9FDFF2D
:10115E00FFE0CF2FEFEFE0FDF30EEFEFEFE0FFFF3D
:10116E00FEFEFE82BABABABABABABA82FEFEFEFF64
:10117E00FFC0DFDFDFC0FFFFC0FFFFFFFF00FFFF8D
:10118E00FFFFFFFFFFFFFFFFFFFFFFFFFFFFFFFF61
:10119E00FDBBD7EFD0BFFFC0DB5B9BDBDBC0FFFF30
:1011AE00BFA0BEBE80FEFDD9D5CD1DCDD4D9FDFFCD
:1011BE00FFE0CF2FEFEFE0FDF30EEFEFEFE0FFFFDD
:1011CE00FF80BDB594A5B185B5A594B5BD80FFFFD3
:1011DE00FEDEDDDDDBD0CA1ACAD2DAD9DDDEFEFFD5
:1011EE00FFFFFFFFFFFFFFFFFFFFFFFFFFFFFFFF01
:1011FE00F7F9FFC0DFDEC1DB5B98DBDBDBDBDFFF9C
:10120E00FFFF80BFB7BBBCBFBCB3BF80FFFFFFFFFC
:10121E00FFE0CF2FEFEFE0FDF30EEFEFEFE0FFFF7C
:10122E00FDFDBDCCFFFFC0DBDB9B5BDBDBC3FFFF4C
:10123E00FFFDFDBBBBD7D7ECEFD7D7BB7BFDFFFFC9
:10124E00F7F9BFCEFFF7F7F7F700F7F7F7F7FFFF5E
:10125E00FFF7F7F7F7F4F300F3F4B7C7F7F7FFFF6D
:10126E00FDFDBDCCFFFFFFFFFF00FDFDFDFDFFFF00
:10127E00FFFEF9E01FFDFBE70FEFECEFEFEBE7FFF3
:10128E00DFDDDBD7DFC15F9FDFC1DFD7DBDDDFFF58
:10129E00FDDDD5D5D5D5D501D5D5D5D5D5DDFDFF3A
:1012AE00FFE0EF00EFE0FDDDDDDD01DDDDDDFDFF6B
:1012BE00FFFFFFFFFFFFFFFFFFFFFFFFFFFFFFFF30
:1012CE00FFFFFFFFFFFFFFFFFFFFFFFFFFFFFFFF20
:1012DE00FFFFFFFFFFFFFFFFFFFFFFFFFFFFFFFF10
:1012EE00FFFFFFFFFFFFFFFFFFFFFFFFFFFFFFFF00
:1012FE00FFFFFFFFFFFFFFFFFFFFFFFFFFFFFFFFF0
:10130E00FFFFFFFFFFFFFFFFFFFFFFFFFFFFFFFFDF
:10131E00FFFFFFFFFFFFFFFFFFFFFFFFFFFFFFFFCF
:10132E00FFFFFFFFFFFFFFFFFFFFFFFFFFFFFFFFBF
:10133E00FFFFFFFFFFFFFFFFFFFFFFFFFFFFFFFFAF
:10134E00FFFFFFFFFFFFFFFFFFFFFFFFFFFFFFFF9F
:10135E00FFFFFFFFFFFFFFFFFFFFFFFFFFFFFFFF8F
:10136E00FFFFFFFFFFFFFFFFFFFFFFFFFFFFFFFF7F
:10137E00FFFFFFFFFFFFFFFFFFFFFFFFFFFFFFFF6F
:10138E00FFFFFFFFFFFFFFFFFFFFFFFFFFFFFFFF5F
:10139E00FFFFFFFFFFFFFFFFFFFFFFFFFFFFFFFF4F
:1013AE00FFFFFFFFFFFFFFFFFFFFFFFFFFFFFFFF3F
:1013BE00FFFFC0555555554155555555C0FFFFFFBB
:1013CE00FF3DBEBD83FD1DDDDDDD01DDDDD518FF7D
:1013DE00FFFF007D7B777F7F3F4F777B7D70FFFF29
:1013EE00FDFD7D7D7D7D7D017D7D7D7D7DFDFDFF19
:1013FE00FEFEFDFDFB77AFDFAF77FBFDFDFEFEFFD3
:10140E00FF0FDFDFDF0EFDF30FBFBFBDBE01FFFF1E
:10141E00F7EF9F7F007F9FFFFF03F7F7F703FFFFB5
:10142E00FFFFFF01FBF7006D6D6D6D6D6D00FFFF32
:10143E00FFFFFF00DDDDDDDDDDDDDD00FFFFFFFF9A
:10144E00FFFF00BDBDBDBD01BDBDBDBD00FFFFFFAA
:10145E007F7F7F7F7F7F7F007F7F7F7F7F7F7FFF8D
:10146E007F6F6F6F67696F6F6D6E416F6F6F7FFF0D
:10147E007FFFFBF1EB9B7BFBFBDBE3F9FF7F7FFF4A
:10148E00FDFDFD01FDFDFD01FDFDFDFDFDFDFDFF74
:10149E00DFDF817F7D78756D5D3D7D75797C7FFFAA
:1014AE00DFDF817FFFFF007D7D7D7D7D00FFFFFF04
:1014BE00FF7D7B766E1E4D555B5B554D7EFEFEFFB2
:1014CE00FF00FDEDEDEDED0DEDADCDEDFD00FFFF02
:1014DE00FF076F6F6D06FD03FEFD33CF33FDFEFF7D
:1014EE00FDFDFD3DFD01FDFDFD01BD7DFDFDFDFF94
:1014FE00FFFF03F6E907F7FB06FD1BE79B7DF0FFF9
:10150E007FFFFF00FFFFFF606D6D6D6D6D60FFFF74
:10151E00F7EEDE3DFDFB7B97EFD7BB7DFDFEFEFFBD
:10152E00BFBFA0AD2DADAD2DADAD2DADA0BFBFFFDD
:10153E00FFFFFFFFFFFFFFFFFFFFFFFFFFFFFFFFAD
:10154E00FFFFFFFFFFFFFFFFFFFFFFFFFFFFFFFF9D
:10155E00FFFFFFFFFFFFFFFFFFFFFFFFFFFFFFFF8D
:10156E00FFFFFFFFFFFFFFFFFFFFFFFFFFFFFFFF7D
:10157E00FFFFFFFFFFFFFFFFFFFFFFFFFFFFFFFF6D
:10158E00FFFFFFFFFFFFFFFFFFFFFFFFFFFFFFFF5D
:10159E00FFFFFFFFFFFFFFFFFFFFFFFFFFFFFFFF4D
:1015AE00FFFFFFFFFFFFFFFFFFFFFFFFFFFFFFFF3D
:1015BE00EE997FFF39BEBEB62ADEBE7CBFDB0CFFC6
:1015CE00FFFF03F7AB37AD9E01FF3DFE01FFFFFFAF
:1015DE00DFDFDFDFDFDDDE819F5FDFDFDFDFDFFF0E
:1015EE00DF3FFF00FF7FFEFE3DCBF7CB3DFEFEFF54
:1015FE00FEFDFBF7EF9F7FFF7F9DFEFD03FFFFFFCD
:10160E00FFEFEDDE01BF7DFDFB37CFD7BB7DE0FFEA
:10161E007FFFFF00FFFF00FFFFFFFFFDFE01FFFF4B
:10162E00DFDDBE017FFEBDA3BDBE80B6B6B6BEFF7A
:10163E007FFFFF00FEBDBB27BFBFBF2FB3BCBFFFE9
:10164E00FFFDFB07FBF5EDDDBD7DBDDDE5FDFDFF22
:10165E00FFFFFFFFFFFFFF00FFFFFFFFFFFFFFFF8B
:10166E007F7F7F7F7F7F7F007F7F7F7F7F7F7FFF7B
:10167E00FFFFFF80BDBDBDBDBDBDBD80FFFFFFFF38
:10168E00FFFFE5E3FFFFFFFFFFFFFFFFFFFFFFFF92
:10169E00EE997FFF39BEBEB62ADEBE7CBFDB0CFFE5
:1016AE00FFFF03F7AB37AD9E01FF3DFE01FFFFFFCE
:1016BE00BF7FFF00FD7D7D7D7D017D7D7D7DFDFFFD
:1016CE00FFEFEDDE01BF7DFDFB37CFD7BB7DE0FF2A
:1016DE007FFFFF00FFFF00FFFFFFFFFDFE01FFFF8B
:1016EE00DFDDBE017FFFFF00BBBBBB03BBBBFBFF50
:1016FE00FFFDFB07FBFDF5CD3DFDFD05FDFDFDFFF2
:10170E00F7F3F70FEFEFFE0DFBE71FF7FB0DFEFFF5
:10171E00FFFF00BDBDBDBDBDBDBDBDBD00FFFFFF1B
:10172E00FFFDFB07FBFDFD7DFDEDF50DFDFDFDFF59
:10173E00EF9F7F007F9FFD6D6D6D016D6D6D7DFF68
:10174E00FFFF0FDFDFDFDF00DFDFDFDF0FFFFFFF7A
:10175E00BB19BBB7B7FF80BDBDBDBDBD80FFFFFFD1
:10176E00FFEFEDDE01BF7DFDFB37CFD7BB7DE0FF89
:10177E007FFFFF00FFFF00FFFFFFFFFDFE01FFFFEA
:10178E00DFDDBE017FFEBDA3BDBE80B6B6B6BEFF19
:10179E007FFFFF00FEBDBB27BFBFBF2FB3BCBFFF88
:1017AE00DFBF41DFDFDFDF80DF5FDBDDC3FFFFFF9A
:1017BE00FB037B7B7707F6FDFBE71DFEFD03FFFFBB
:1017CE00FF017B7B7B7B01FFFFFF3DFEFD03FFFFE8
:1017DE00F7EFDFBF035DDDDDBDBDBD7DE1FFFFFFCB
:1017EE00FF1EFDF30FFFFF07FFFF00EFF70FFFFFD9
:1017FE00F7EF9F7F007F9FFFFF03F7F7F703FFFFD2
:10180E00DFDFDFDFDFDDDE819F5FDFDFDFDFDFFFDB
:10181E00FFFFFFFF00FD7BB7DFEFF7FBFBFDFDFFDB
:10182E00DFDFDFDFDFDDDE819F5FDFDFDFDFDFFFBB
:10183E00FDBB57EF9779FD01BDBDBDBD01FDFDFFA0
:10184E007FFFFF00FFFF00FFFFFFFFFDFE01FFFF19
:10185E00FFFFE7DBDBE7FFFFFFFFFFFFFFFFFFFF02
:10186E00FEF907FED9BF79DEEE12FE7CBFD7F9FF77
:10187E00FFEFEDDE01BF7DFDFB37CFD7BB7DE0FF78
:10188E00DF3FFF00FF7FFEFE3DCBF7CB3DFEFEFFB1
:10189E00FF017B7B7B7B01FFFFFF3DFEFD03FFFF17
:1018AE00EF9F7F00FF7FDFDFDFDFDF00BFBFBFFF08
:1018BE00FFFF03FDDDED1DFDF1FF0FFDFE01FFFF3F
:1018CE007F7F7F7F7F7F7F007F7F7F7F7F7F7FFF19
:1018DE00FFFFFF80BDBDBDBDBDBDBD80FFFFFFFFD6
:1018EE00FE81F703DDDDFD0DDDF56D9D6DC5FDFFA3
:1018FE007B7B77776F5F3F003F5F6F77777B7BFFF9
:10190E00FE81F703DDDDFD0DDDF56D9D6DC5FDFF82
:10191E00FDBB57EF9779FFFFFDFE01FFFFFFFFFFB6
:10192E00FFFFE5E3FFFFFFFFFFFFFFFFFFFFFFFFEF
:10193E00FFFF03F7EFDEFDFBF7CF3FEFF7FBFCFFFB
:10194E00FDFBE71FFF80BDBDBDBDBDBD80FFFFFF21
:10195E00FF017B7B7B7B01FFFFFF3DFEFD03FFFF56
:10196E00F7F3F70FEFEFFE0DFBE71FF7FB0DFEFF93
:10197E00FFFF00BDBDBDBDBDBDBDBDBD00FFFFFFB9
:10198E00FE81F703DDDDFD0DDDF56D9D6DC5FDFF02
:10199E007B7B77776F5F3F003F5F6F77777B7BFF58
:1019AE00FE81F703DDDDFD0DDDF56D9D6DC5FDFFE2
:1019BE007FFFFF00FFFEF9C73FFF03FDFDFDE1FFC7
:1019CE007F7EFEFD730F7F7F7F4D2EEDE37F7FFFCA
:1019DE00FFFFFF33FFFFFFFFFFFFFFFFFFFFFFFFD5
:1019EE00FF7E7D7B774F3F7F7F7D7E7D03FFFFFFF9
:1019FE007EFD7BB7CF3FFFFFFF00FFFFFF3FFFFFE7
:101A0E00FFFFE5E3FFFFFFFFFFFFFFFFFFFFFFFF0E
:101A1E00FDFE01FF7FFFFE0DFBE71FF7FB0DFEFF37
:101A2E00BF7FFF00FE3DFBE71FFFFF03FDFDE1FF54
:101A3E00FFEFEDDE01BF7DFDFB37CFD7BB7DE0FFB6
:101A4E00DF3FFF00FF7FFEFE3DCBF7CB3DFEFEFFEF
:101A5E00FFF3EBDBBB7BF3FFFFFFFFFFFFFFFFFFA0
:101A6E00FF0FF7FBFBF70FFFFFFFFFFFFFFFFFFF70
:101A7E00FFFFFBFB03FBFBFFFFFFFFFFFFFFFFFF74
:101A8E00FFFFFF837FFFFFFFFFFFFFFFFFFFFFFF54
:101A9E00DFDFDF1FDFDFDFDF00DFDFDFDFDFDFFFC7
:101AAE00FFFFFFFFFFFFFFFFFFFFFFFFFFFFFFFF38
:101ABE00DFDDBE017FBE7DF30FFFFF01FE7EB0FFB7
:101ACE00FF017B7B7B7B01FEFDFB17E79B7DF0FF20
:101ADE00DF3FFF00FFDFBF7FFF00FFFF7F9FFFFFA6
:101AEE00FFFFFFFFFFFFFFFFFFFFFFFFFFFFFFFFF8
:101AFE00FEF907FFF7FB07FEFD7B97E79B7DE0FFF7
:101B0E00F7F3F707EFEEEDF38F7FFDFEFD03FFFF1B
:101B1E007F6FEFEF6F6F6F006F6F6FEFEF6F7FFF86
:101B2E00FFDEBD7BE79F7FFFFDFEFD03FF7F9FFF77
:101B3E00FFFFE5E3FFFFFFFFFFFFFFFFFFFFFFFFDD
:101B4E00FEF907FED9BF79DEEE12FE7CBFD7F9FF94
:101B5E00FFEFEDDE01BF7DFDFB37CFD7BB7DE0FF95
:101B6E00DF3FFF00FF7FFEFE3DCBF7CB3DFEFEFFCE
:101B7E00DFDFDFDFDFDDDE819F5FDFDFDFDFDFFF68
:101B8E00FFFFFFFFFFFDFE01FFFFFFFFFFFFFFFF58
:101B9E00DFDF00DFDFDFDF1FDFDFDDDE01DFDFFFA7
:101BAE00FFFF03FDDDED1DFDF1FF0FFDFE01FFFF4C
:101BBE007FFFFF00FDFDDDDDDD01DDDDDDDDFDFF98
:101BCE00BB19BBB7B7FE067D7B477B7D06FFFFFFCC
:101BDE00FFFFFF33FFFFFFFFFFFFFFFFFFFFFFFFD3
:101BEE00FFFFFFFFFFFFFFFFFFFFFFFFFFFFFFFFF7
:101BFE00FFFFFFFFFFFFFFFFFFFFFFFFFFFFFFFFE7
:101C0E00FFFFFFFFFFFFFFFFFFFFFFFFFFFFFFFFD6
:101C1E00FFFFFFFFFFFFFFFFFFFFFFFFFFFFFFFFC6
:101C2E00FFFFFFFFFFFFFFFFFFFFFFFFFFFFFFFFB6
:101C3E00FFFFFFFFFFFFFFFFFFFFFFFFFFFFFFFFA6
:101C4E00FFFFFFFFFFFFFFFFFFFFFFFFFFFFFFFF96
:101C5E00FFFFFFFFFFFFFFFFFFFFFFFFFFFFFFFF86
:101C6E00BF7F01F7F702F907FE3DCBF7CB3DFEFF35
:101C7E00EFE7EF1FDFD7EFDFBF7F00FFFF3FCFFFA5
:101C8E007E7D7B477B7D7E006E6E6E6E6E7E7EFFF2
:101C9E00FEFDFBF7EF9F7FFF7F9DFEFD03FFFFFF26
:101CAE00FFFFFFFFFFFDFE01FFFFFFFFFFFFFFFF37
:101CBE00F7EF9F7F007F9FFFFF03F7F7F703FFFF0D
:101CCE007F7F7F7F7F7F7F007F7F7F7F7F7F7FFF15
:101CDE00BF7FFF00FFBFBFBDBE01BFBFBFBFBFFF06
:101CEE00BF7FFF00FD7D7D7D7D017D7D7D7DFDFFC7
:101CFE00FFFFE5E3FFFFFFFFFFFFFFFFFFFFFFFF1C
:101D0E00FFFEFDFBE79F7FFFFBFDFEFD03FFFFFFD9
:101D1E00FFFEFE0AAAAAAA00AAAAAA0AFEFEFFFFB0
:101D2E007E7D7B477B7D7E006E6E6E6E6E7E7EFF51
:101D3E00FEFDFBF7EF9F7FFF7F9DFEFD03FFFFFF85
:101D4E00FFFFFFFFFFFDFE01FFFFFFFFFFFFFFFF96
:101D5E00FDFDBDBDBDBDBD01BDBDBDBDBDFDFDFF1F
:101D6E00BF7FFF00FFBFBFBDBE01BFBFBFBFBFFF75
:101D7E00FFFF00FFFF03FFFF03FFFDFE01FFFFFF5D
:101D8E007B7B77776F5F3F003F5F6F77777B7BFF64
:101D9E00FFFFE5E3FFFFFFFFFFFFFFFFFFFFFFFF7B
:101DAE00BF7FFF00FD7D7D7D7D017D7D7D7DFDFF06
:101DBE00FFFDFB07FBF5EDDDBD7DBDDDE5FDFDFFAB
:101DCE00FFF777ADEEDD03FFF777ADEEDD03FFFF37
:101DDE00FF00FF7FFBF7CF3FDFE7FFFDFE01FFFFB9
:101DEE00FF3DBEBD83FD1DDDDDDD01DDDDD518FF53
:101DFE00FFFFFF00BEBDBBAFAFB7B72BDDFEFFFFD2
:101E0E00FF017B7B7B7B01FFFFFF3DFEFD03FFFFA1
:101E1E00FEF906FE0DADABA709A2AAA208FEFCFFB5
:101E2E007F7F7F405D5D5D5D5D5D5D407F7F7FFFA0
:101E3E00FF03F7F7F703FFFF7F9FFDFE01FFFFFF95
:101E4E007FFFFF00FFFFFFFFFF3FCFF7FBFDE0FF30
:101E5E00FFFFE5E3FFFFFFFFFFFFFFFFFFFFFFFFBA
:101E6E00FFEFEDDE01BF7DFDFB37CFD7BB7DE0FF82
:101E7E00FF017B7B7B7B01FFFFFF3DFEFD03FFFF31
:101E8E00FDC55555005555C5FE01B7B5B601FFFF49
:101E9E00FFFFFFFFFFFFFFFFFFFFFF0FF3FDF0FF51
:101EAE0077EFDF807FFA16425555555216FEFEFF2C
:101EBE007E7E606E6E606E6E6E606E6E607E7EFF9B
:101ECE007FFFFF00FFF7CF3FFDFE01FF7F9FE7FF84
:101EDE00FEF907BDBE01FFFD0DDDDDDDDD0DFDFFF4
:101EEE007FFFFF00FF7D78754D3D7D75797C7FFF0F
:101EFE00FF017B7B7B7B01FFFFFF3DFEFD03FFFFB1
:101F0E00F7CF3FFFFF03FDFDFDFDFDE1FF7F8FFFDF
:101F1E007D63FFFFC3FDFDBDCDFDFDF1DF6F73FFE3
:101F2E00FFFFE7DBDBE7FFFFFFFFFFFFFFFFFFFF2B
:101F3E00FEFEFDFBE71FFFFFFF03FDFDFDFDF1FFB5
:101F4E007E7D734F3F4F717FFF03F7F7F703FFFF60
:101F5E00FF017B7B7B7B01FFFFFF3DFEFD03FFFF50
:101F6E00FDFE01FF7FFFFE0DFBE71FF7FB0DFEFFE2
:101F7E00FFFF606D6D6D6D6D6D6D6D6D60FFFFFFC3
:101F8E007E7D7B477B7D7E006E6E6E6E6E7E7EFFEF
:101F9E007F7FFFC0DDDDDD5DDDDDDDC0FFFF7FFFAF
:101FAE00F7F7F6055357575757575305F6F7F7FFF9
:101FBE00FF017B7B7B7B01FFFFFF3DFEFD03FFFFF0
:101FCE00BF7FFF00FD7D7D7D7D017D7D7D7DFDFFE4
:101FDE00FBFBF7EFDFBF7F007FBFDFEFF7FBFBFF02
:101FEE007B7B77776F5F3F003F5F6F77777B7BFF02
:101FFE00FFFFE5E3FFFFFFFFFFFFFFFFFFFFFFFF19
:10200E00FF00FF77BBC6FD037F7F7F7F7F7F7FFF54
:10201E00DFDF817FFF00776F1F676F1F6D7601FF18
:10202E00FF017B7B7B7B01FFFFFF3DFEFD03FFFF7F
:10203E00BF7FFF00FF3BF7CF3FAFB5BE01BFBFFF76
:10204E00FFFFFFC0DDDDDDDDDDDDDDC0FFFFFFFFFE
:10205E00FFFFFF03F5EDFDFDFD01FDFDFDFDFDFFA8
:10206E00FFBFBFBFBFBFBFBF7F007F7F7F7F7FFF31
:10207E00FFFFFDFDFDFDFD01FDFDFDFDFDFFFFFF74
:10208E007FFFFF00FFFF00FFFFFFFFFDFE01FFFFD1
:10209E007E59EF1FFBFCEFDF3BFC3FFF3BDC0FFFEE
:1020AE00FDFD01FDFD01FDFDFD01FDFD01FDFDFF40
:1020BE00DFDF817FFD0CD5DDD30BFA7DFBE79FFFC4
:1020CE00DFDF817FBEBD03BFBFDFDF00DFDFDFFFEE
:1020DE00FFFFE5E3FFFFFFFFFFFFFFFFFFFFFFFF38
:1020EE00BF7FFF03FFFFFF00FFFFF7FB07FFFFFFB1
:1020FE00DFDF817FFF00776F1F676F1F6D7601FF38
:10210E00BEBEBDBDBBB7AF1FAFB7BBBDBDBEBEFF75
:10211E00FB37EFDF005FAF77FBFF0FFDFE01FFFF29
:10212E00FF017B7B7B7B01FFFFFF3DFEFD03FFFF7E
:10213E00FFFF81BBBBBBBB81FFFF00EFF7EF1FFFB4
:10214E00EF2FE0DF3FDFDFA0AD6D6DADA0DFDFFF76
:10215E00FDFDED2DED6DED81ED2DEDEDED7D7DFFBB
:10216E00FDFDEDEDEDED6D81EDEDEDEDED7DFDFFAB
:10217E00FEF907FFFFFFFFFFFFFFFFFFFFFFFFFF60
:10218E00FF00EFF7EF1FEFEFEFEF00EFEFEFEFFFD7
:10219E00FFFF03F7EFDEFDFBF7CF3FEFF7FBFCFF93
:1021AE00BF7FFF00FFBFAFB3BFBDBE01BFBFBFFF4D
:1021BE00FFFFE5E3FFFFFFFFFFFFFFFFFFFFFFFF57
:1021CE00BDBE017FFF80B6B6B680B6B6B680FFFF45
:1021DE00FEF907FB01DDDDFD0DF5F5F5F5C5FDFF9E
:1021EE00FF017B7B7B7B01FEFDFB17E79B7DF0FFF9
:1021FE00FD0CD5DDDBD30BFBFE3DCBF7CB3DFEFF60
:10220E00F72DBE81BF2FF6F9C73FFF03FDFDF1FF8E
:10221E00FFFFFF03F5EDFDFDFD01FDFDFDFDFDFFE6
:10222E00FFEFEDDE01BF7DFDFB37CFD7BB7DE0FFBE
:10223E007FFFFF00FFFF00FFFFFFFFFDFE01FFFF1F
:10224E007F7F017B77FF006F6F016F6D6E01FFFF68
:10225E00FEFEFDFBF7CF3FFF3FCFF7FBFDFEFEFF80
:10226E007E7E606E6E606E6E6E606E6E607E7EFFE7
:10227E00F7F3F70FEFEFFF03FDFD05BDDD3DE1FFCA
:10228E00FF017B7B7B7B01FFFFFF3DFEFD03FFFF1D
:10229E007B7B77776F5F3F003F5F6F77777B7BFF4F
:1022AE00FFFFE7DBDBE7FFFFFFFFFFFFFFFFFFFFA8
:1022BE00FF017B7B7B7B01FEFDFB17E79B7DF0FF28
:1022CE00FF7F6F6F6F6D6E016F6F6F6F077F7FFF99
:1022DE00FB03FB077777FDFDFB37CFD7BB7DE0FF19
:1022EE00FB03FB07B7BFFF006D6D6D6D6D00FFFF4C
:1022FE00FFFFFFFFFFFFFFFFFFFFFFFFFFFFFFFFE0
:10230E00FFEFEDDE01BF7DFDFB37CFD7BB7DE0FFDD
:10231E00FF017B7B7B7B01FFFFFF3DFEFD03FFFF8C
:10232E00FEF907BEAE953BB58EFD1BE79B7DF0FF1C
:10233E00FFFEFDFBE79F7FFFFBFDFEFD03FFFFFFA3
:10234E00FFFFFF03F5EDFDFDFD01FDFDFDFDFDFFB5
:10235E007FFFFF00FFF7CF3FFDFE01FF7F9FE7FFEF
:10236E007FFFFF00FFFFFF007D7D7D7D7D00FFFF76
:10237E00FFFFE5E3FFFFFFFFFFFFFFFFFFFFFFFF95
:10238E00FEF6F66D4D155B5B5B554D5DFEFEFEFF7D
:10239E00DFDF817FFFFF80BDBD3DBDBD80FFFFFF45
:1023AE00BF7FFF00FF3FFF07EFEF00EFEF07FFFFDD
:1023BE00FFFFFF01FBF7FF80BDBD3DBDBD80FFFFF1
:1023CE00FFFFFFFFFFFFFFFFFFFFFFFFFFFFFFFF0F
:1023DE007FFF00FFBDB3BFB1BE9EA6BEB8AFB3FFB9
:1023EE00BFBFBFA0AAAAAAAAAAAAAAA0BFBFBFFF80
:1023FE007FFFFF00FFFEBDB30FBFBFBF1FFFFFFF7D
:10240E00FF017B7B7B7B01FFFFFF3DFEFD03FFFF9B
:10241E00FFFEFDFBE79F7FFFFBFDFEFD03FFFFFFC2
:10242E00FFFEFE0AAAAAAA00AAAAAA0AFEFEFFFF99
:10243E00FEFEFDFBF7CF3FFF3FCFF7FBFDFEFEFF9E
:10244E00FFFFE5E3FFFFFFFFFFFFFFFFFFFFFFFFC4
:10245E00FEF907FFFBF7CF3FCFF3FF0FF3FDE0FFD2
:10246E00EFE7EDDEDD03FF076F6F05FE01FFFFFFF8
:10247E00FF017B7B7B7B01FFFFFF3DFEFD03FFFF2B
:10248E00FFFFFF9F5FDFDFDFDDDEDDC3FFFFFFFF4F
:10249E00FF0FDFDFDF0FFFFF0FDFBFBF7F00FFFF8D
:1024AE00FFFFFFFFFFFFFFFFFFFFFFFFFFFFFFFF2E
:1024BE00EFDDBE7D03FFFF007D7B1F6F776BDDFFC2
:1024CE00EFE7EDDEDD03FF076F6F05FE01FFFFFF98
:1024DE00FF017B7B7B7B01FFFFFF3DFEFD03FFFFCB
:1024EE00FF00BD7DFD0D75755515E57DBD00FFFF2A
:1024FE00EFEFEFEDE905ADADADADADE9ECEFEFFF13
:10250E00FFFFE5E3FFFFFFFFFFFFFFFFFFFFFFFF03
:10251E00DEBD730FBEBEBDBBA71FA7BBBDBEBEFF3C
:10252E00FEF907FFFBF7CF3FCFF3FF0FF3FDE0FF01
:10253E00FF017B7B7B7B01FFFFFF3DFEFD03FFFF6A
:10254E00FFFDFB07FBFD056D6D6D6D6D6D6D05FF83
:10255E007F7D734F7F7D7E017F7F5F6F77797FFFFA
:10256E00DFDF817F7D78756D5D3D7D75797C7FFFC9
:10257E00F7EFDFBF7FFFFF00FFFF7FBFDFEFF7FF4C
:10258E00FFFFFF03F5EDFDFDFD01FDFDFDFDFDFF73
:10259E007FFFFF00FFF7CF3FFDFE01FF7F9FE7FFAD
:1025AE00FEFE7E7D3D5B6B776B5B3D7DFEFEFEFF33
:1025BE00FFFFFF005757575757555601FFFFFFFFB5
:1025CE00FB397B077763FDDDDDDD01DDDDDDFDFF45
:1025DE00FFFFFFFFFFFFFFFFFFFFFFFFFFFFFFFFFD
:1025EE00FFFFFFFFFFFFFFFFFFFFFFFFFFFFFFFFED
:1025FE00FFFFFFFFFFFFFFFFFFFFFFFFFFFFFFFFDD
:10260E00FFFFFFFFFFFFFFFFFFFFFFFFFFFFFFFFCC
:10261E00FFFFFFFFFFFFFFFFFFFFFFFFFFFFFFFFBC
:10262E00FFFFFFFFFFFFFFFFFFFFFFFFFFFFFFFFAC
:10263E00FFFFFFFFFFFFFFFFFFFFFFFFFFFFFFFF9C
:10264E00FFFFFFFFFFFFFFFFFFFFFFFFFFFFFFFF8C
:10298000041000000000010800010B00010F00010D
:102990000900011600010C00010A00011700020DD8
:0629A0000000021400001B
:10265E001229CDE50864026003022716E5096420FD
:10266E006003022716C28CF508F509758CFC758A75
:10267E0018E513F4F51270030227161229A726CFB8
:10268E000826BD0C26BD1126C21226C71326CF144E
:10269E0026D71526DF1626C21826D71C26ED42276A
:1026AE00074A26FC5226DF5A26C75E0000271675FB
:1026BE0014008018751400801B75140175150080A8
:1026CE0016751401751540800E75140175158080F0
:1026DE00067514017515C0751701750A408029E439
:1026EE00F514F515751702750A80F512801A751412
:1026FE000275150075170380097514087515B075E8
:10270E001704750A80E4F512E50A650E7002E50DF0
:10271E006003022661C28EF50DF50E75A0FF758061
:10272E00FF758DFD758B0FE517B4021A0515E515AE
:10273E00700205147004E51464026003022661F54C
:10274E0014F515022661E517B4031D0515E5157080
:10275E0002051464B07004E5146408600302266177
:10276E00751402F515022661E5176404600302264E
:10277E00610515E5157002051464A07004E5146476
:0F278E001260030226617514087515B0022661EA
:1029CD00D288D2A8D2B2758CFC758A18D2A9758915
:1029DD0011758DFD758B0FD2ABD28AD2AAD2AF22D3
:0300030002279D34
:10279D00C0E0C0D075D000C000C00720B27AE508F7
:1027AD001460091460262402706E801AC28CE58CA8
:1027BD00C3940D500B750800758CFC758A188058E4
:1027CD00758C00758A00D28C0508804CC28C858C66
:1027DD000F758C00758A00D28CE509131313541FE5
:1027ED00F5162410F8C000E6C313D000F6E50FD39C
:1027FD0094144012C28C758CFC758A18750800757E
:10280D000900D2B28010E50FD3940640097410254B
:10281D0016F8E64480F60509D007D000D0D0D0E0F8
:01282D003278
:03000B0002294E79
:10294E00C0E0C0D0E50BC39408501720B20C758CB4
:10295E00FC758A18D28C050B8013758CFC758A1841
:10296E008008758C00758A00D28C750B00D0D0D083
:02297E00E03245
:030013000229EDD2
:0629ED00D28E750C0132D0
:03001B000228BAFE
:1028BA00C0E0C0F0C083C082C0D075D000C000C0E4
:1028CA0001C002C003C004C005C006C007E50C6011
:1028DA000B758DFF758B06750C008009758DFF755C
:1028EA008B0612290AD007D006D005D004D003D00F
:1028FA0002D001D000D0D0D082D083D0F0D0E03244
:10290A00C3E50E950AE50D94005038E515250EFF2E
:10291A00E514350DFE741E2FF58274003EF583E42E
:10292A0093F5A0050EE50EAE0D7002050D142515E2
:10293A00FFE5143EFE743E2FF58274133EF583E4E0
:04294A0093F580225F
:10283A0002265EE493A3F8E493A34003F68001F230
:10284A0008DFF48029E493A3F85407240CC8C3339F
:10285A00C4540F4420C8834004F456800146F6DF6E
:10286A00E4800B0102040810204080902980E47E55
:10287A00019360BCA3FF543F30E509541FFEE49363
:10288A00A360010ECF54C025E060A840B8E493A32A
:10289A00FAE493A3F8E493A3C8C582C8CAC583CA55
:1028AA00F0A3C8C582C8CAC583CADFE9DEE780BE0D
:0129A6000030
:1029A700D083D082F8E4937012740193700DA3A3BF
:1029B70093F8740193F5828883E4737402936860D3
:0629C700EFA3A3A380DFD3
:00000001FF
